:020000040800F2
:10000000000002205909000855090008E9520008BB
:1000100055090008550900085509000800000000AE
:10002000000000000000000000000000550900086A
:100030005509000800000000550900086D5200082D
:100040005509000855090008550900085509000818
:100050005509000855090008550900085509000808
:10006000550900085509000855090008C93E00084F
:10007000D53E00082D2C0008E13E0008ED3E0008AA
:10008000354D0008F93300085509000855090008E6
:1000900055090008550900085509000855090008C8
:1000A00055090008550900085509000855090008B8
:1000B000210501082D050108390501082D34000826
:1000C00055090008393400085509000891FD000859
:1000D0009DFD0008694B0008954B0008C94B0008BE
:1000E00055090008550900080000000055090008DE
:1000F0005509000855090008550900085509000868
:10010000550900085509000845050108A9FD000822
:10011000FD4B0008314C000855090008550900083E
:100120005509000855090008CDFD000801FE00082A
:10013000694D0008550900085509000855090008CF
:1001400000000000000000000000000000000000AF
:10015000550900085509000855090008654C0008B4
:1001600045340008550900087D520008A1520008D6
:1001700055090008C552000855090008550900082E
:100180005509000855090008994C0008CD4C000895
:10019000B5FD0008C1FD0008550900085509000813
:1001A00055090008550900085509000855090008B7
:1001B000E93B0008550900085509000855090008E1
:1001C0005509000855090008550900085509000897
:1001D0005509000855090008550900085509000887
:1001E0005509000855090008550900085509000877
:1001F0005509000855090008550900085509000867
:100200005509000855090008550900085509000856
:100210005509000855090008550900085509000846
:10022000550900085509000855090008000000009C
:10023000550900085509000800000000550900088C
:100240005509000855090008550900085509000816
:100250005509000855090008550900085509000806
:1002600055090008550900085509000855090008F6
:100270005509000855090008014D0008000000005C
:10028000550900085509000855090008000000003C
:08029000000000005509000800
:1002980010B5054C237833B9044B13B10448AFF3B8
:1002A80000800123237010BDE0030024000000003B
:1002B8002824010808B5034B1BB103490348AFF3D1
:1002C800008008BD00000000E40300242824010881
:1002D80081F0004102E000BF83F0004330B54FEAEF
:1002E80041044FEA430594EA050F08BF90EA020F5C
:1002F8001FBF54EA000C55EA020C7FEA645C7FEAEF
:10030800655C00F0E2804FEA5454D4EB5555B8BF11
:100318006D420CDD2C4480EA020281EA030382EA82
:10032800000083EA010180EA020281EA0303362D14
:1003380088BF30BD11F0004F4FEA01314FF4801CE7
:100348004CEA113102D0404261EB410113F0004FF9
:100358004FEA03334CEA133302D0524263EB4303B0
:1003680094EA050F00F0A780A4F10104D5F1200E4E
:100378000DDB02FA0EFC22FA05F2801841F10001A9
:1003880003FA0EF2801843FA05F359410EE0A5F17D
:1003980020050EF1200E012A03FA0EFC28BF4CF0AE
:1003A800020C43FA05F3C01851EBE37101F0004564
:1003B80007D54FF0000EDCF1000C7EEB00006EEB71
:1003C8000101B1F5801F1BD3B1F5001F0CD34908FB
:1003D8005FEA30004FEA3C0C04F101044FEA445252
:1003E80012F5800F80F09A80BCF1004F08BF5FEAD9
:1003F800500C50F1000041EB045141EA050130BDB9
:100408005FEA4C0C404141EB0101013C28BFB1F5CA
:10041800801FE9D291F0000F04BF01460020B1FA15
:1004280081F308BF2033A3F10B03B3F120020CDAE8
:100438000C3208DD02F1140CC2F10C0201FA0CF0C6
:1004480021FA02F10CE002F11402D8BFC2F1200C2B
:1004580001FA02F120FA0CFCDCBF41EA0C019040E1
:10046800E41AA2BF01EB0451294330BD6FEA04042A
:100478001F3C1CDA0C340EDC04F11404C4F1200215
:1004880020FA04F001FA02F340EA030021FA04F327
:1004980045EA030130BDC4F10C04C4F1200220FA7E
:1004A80002F001FA04F340EA0300294630BD21FABC
:1004B80004F0294630BD94F0000F83F4801306BF82
:1004C80081F480110134013D4EE77FEA645C18BF76
:1004D8007FEA655C29D094EA050F08BF90EA020F0D
:1004E80005D054EA000C04BF1946104630BD91EA05
:1004F800030F1EBF0021002030BD5FEA545C05D108
:100508004000494128BF41F0004130BD14F5800446
:100518003CBF01F5801130BD01F0004545F0FE41BA
:1005280041F470014FF0000030BD7FEA645C1ABFEF
:10053800194610467FEA655C1CBF0B46024650EA26
:10054800013406BF52EA033591EA030F41F4002152
:1005580030BD00BF90F0000F04BF0021704730B5D8
:100568004FF4806404F132044FF000054FF00001AD
:1005780050E700BF90F0000F04BF0021704730B56E
:100588004FF4806404F1320410F0004548BF404243
:100598004FF000013EE700BF42004FEAE2014FEA98
:1005A80031014FEA02701FBF12F07F4393F07F4F73
:1005B80081F06051704732F07F4208BF704793F076
:1005C8007F4F04BF41F40021704730B54FF4607489
:1005D80001F0004521F000411CE700BF50EA01028C
:1005E80008BF704730B54FF000050AE050EA010235
:1005F80008BF704730B511F0004502D5404261EBA5
:1006080041014FF4806404F132045FEA915C3FF4E5
:10061800D8AE4FF003025FEADC0C18BF03325FEA82
:10062800DC0C18BF033202EBDC02C2F1200300FA33
:1006380003FC20FA02F001FA03FE40EA0E0021FA58
:1006480002F11444BDE600BF53B94AB9002908BFF6
:1006580000281CBF4FF0FF314FF0FF3000F074B995
:10066800ADF1080C6DE904CE00F006F8DDF804E001
:10067800DDE9022304B070472DE9F047089D0446E0
:100688008E46002B4DD18A42944669D9B2FA82F23D
:1006980052B101FA02F3C2F1200120FA01F10CFA79
:1006A80002FC41EA030E94404FEA1C48210CBEFBB1
:1006B800F8F61FFA8CF708FB16E341EA034306FB3A
:1006C80007F199420AD91CEB030306F1FF3080F0C9
:1006D8001F81994240F21C81023E63445B1AA4B216
:1006E800B3FBF8F008FB103344EA034400FB07F7B8
:1006F800A7420AD91CEB040400F1FF3380F00A81F9
:10070800A74240F207816444023840EA0640E41BED
:1007180000261DB1D4400023C5E900433146BDE899
:10072800F0878B4209D9002D00F0EF800026C5E93B
:10073800000130463146BDE8F087B3FA83F6002E53
:100748004AD18B4202D3824200F2F980841A61EBCB
:10075800030301209E46002DE0D0C5E9004EDDE7E9
:1007680002B9FFDEB2FA82F2002A40F09280A1EBD1
:100778000C014FEA1C471FFA8CFE0126200CB1FB26
:10078800F7F307FB131140EA01410EFB03F088421F
:1007980008D91CEB010103F1FF3802D2884200F2AC
:1007A800CB804346091AA4B2B1FBF7F007FB10113E
:1007B80044EA01440EFB00FEA64508D91CEB0404DC
:1007C80000F1FF3102D2A64500F2BB800846A4EB37
:1007D8000E0440EA03409CE7C6F12007B34022FA22
:1007E80007FC4CEA030C20FA07F401FA06F31C4351
:1007F800F9404FEA1C4900FA06F3B1FBF9F8200C5E
:100808001FFA8CFE09FB181140EA014108FB0EF0A3
:10081800884202FA06F20BD91CEB010108F1FF3AF3
:1008280080F08880884240F28580A8F102086144FF
:10083800091AA4B2B1FBF9F009FB101144EA01410D
:1008480000FB0EFE8E4508D91CEB010100F1FF34B8
:100858006CD28E456AD90238614440EA0840A0FB50
:100868000294A1EB0E01A142C846A64656D353D026
:100878005DB1B3EB080261EB0E0101FA07F722FA4A
:1008880006F3F1401F43C5E9007100263146BDE873
:10089800F087C2F12003D8400CFA02FC21FA03F3D6
:1008A800914001434FEA1C471FFA8CFEB3FBF7F057
:1008B80007FB10360B0C43EA064300FB0EF69E427C
:1008C80004FA02F408D91CEB030300F1FF382FD215
:1008D8009E422DD9023863449B1B89B2B3FBF7F6BD
:1008E80007FB163341EA034106FB0EF38B4208D996
:1008F8001CEB010106F1FF3816D28B4214D9023ED7
:100908006144C91A46EA004638E72E46284605E7F4
:100918000646E3E61846F8E64B45A9D2B9EB0208C5
:1009280064EB0C0E0138A3E74646EAE7204694E755
:100938004046D1E7D0467BE7023B614432E7304688
:1009480009E76444023842E7704700BFFEE700BF8A
:100958000B480C4A904203D0121A0B4911F012FBB3
:100968000A480B4A904203D0121A002111F018FBD2
:1009780004F00EFF11F0E2FA00F016F8FEE700BFEF
:1009880000000024E003002458240108E0030024A8
:10099800C0C40024704700BF704700BF704700BF45
:1009A800704700BF704700BFF0B5324B0021324896
:1009B8004FF07C56314C0027314D2DED048B9FEDC7
:1009C800319A83B0F7EE008A83ED009A00F016FAA8
:1009D8000421294800F046F9274800F059F9B0EEFB
:1009E800408A9FED290A20466660C8EE887A84ED21
:1009F800048A84ED020AE660A761C4ED057A11F065
:100A080059F90023F0EE407A2846B0EE480A2370E0
:100A180040F20113C4ED077A238510F05FFE07202A
:100A280000F082FAADF804000199B0EE490A1748BF
:100A380001F022FE0223164A20469FED160A136093
:100A4800237084ED020A11F035F9134A134B0A4852
:100A5800C4ED018AC5ED068A84ED070A6F61AA60B4
:100A6800EB602E6200F016F90D49034800F0F8F823
:100A7800FEE700BF90970024A0040024740400241B
:100A8800FC03002400007A440000C8428097002438
:100A9800949700240000DC430AD7233CCDCC4C3E7D
:100AA8003D0B000808B51B4801F000FE1A4B93F8EF
:100AB800B4201AB193F8BA207F2A15D093F8C4202D
:100AC8001AB193F8CA307F2B06D0124B1A7912B19B
:100AD8009B7A7F2B12D008BD104901221048114B78
:100AE800086083F83420F0E70C480121DFF840C0A3
:100AF8000C4AC0F800C082F83410DFE70A48012128
:100B0800084B064A83F8341010600848BDE80840CE
:100B180000F048BA80970024A0040024909700248D
:100B280000005C43FC03002400007A4434040024E1
:100B38000000DC432DE9F0411A4817460C462DED1C
:100B4800028B00F0ABF8174800F0B4F8FFF7AAFFE3
:100B58001FB3013F0025DFF858807F08124E134865
:100B6800083410F0D3FDD8ED007AB0EE408A0E4874
:100B7800B0EE670AC6ED027A11F09CF80A4886EDD5
:100B8800070A10F0DDFE28EE000ABD4205F1010556
:100B980004ED020A04ED010AE1D1BDEC028BBDE8C7
:100BA800F08100BFA004002474040024FC03002486
:100BB8009097002470B51E4C00251E4E04F5C07099
:100BC800256065612562E56301F0F0FC1A4A40F290
:100BD8000F731A492046C4F8382204F51472A4F891
:100BE8003C3240F20113C4F89051C4F84852C4F89A
:100BF8004C52C4E99023324611F062F8104832464C
:100C08001049056045610562C56311F059F832461F
:100C18000D490E4811F054F832460D490D4811F0AF
:100C28004FF832460C490D48BDE8704011F048B8FD
:100C3800A0040024000000240080707FAD09000893
:100C480034040024A9090008A10900087404002438
:100C58009D090008FC030024A509000880970024CA
:100C680000F078B938B5044600F07CF9D4F8A850FB
:100C7800204600F093F9284601F0FEFBD4F8AC506A
:100C8800204600F08BF92846BDE8384001F0F4BB57
:100C980000F064B9183001F059BF00BF10B5044620
:100CA800683001F0C5FB04F18800BDE8104001F090
:100CB800BFBB00BF10B50446403001F039FC04F159
:100CC800B00001F0F3FC04F1C000BDE8104001F0F1
:100CD800EDBC00BFF0B54FF481718FB000F1D807BB
:100CE80001254FF4C0624FF4E063ADF8081000F539
:100CF800967402993846ADF80C2008AEADF810305D
:100D08000095DDE9032301F06BFC40F201134FF479
:100D180080722046ADF814304FF480630599009531
:100D28000BADADF81820ADF81C30DDE9062301F055
:100D380057FC3046072104F065FE96E8070085E871
:100D480007002946384601F073FC96E8070085E855
:100D580007002946204601F06BFC384601F07EFC6E
:100D680020460FB0BDE8F04001F078BC2DE9F04115
:100D780040F2024304460222002504F1180704F158
:100D8800A8062DED028B8EB09FED1B8AADF80C30B6
:100D980005A8039901F0B8FC02220DF12600ADF870
:100DA8001020049901F0B0FC0423022205A938465A
:100DB80001F0BEFC04F1680204F18803C4E92A23A7
:100DC8002946384656F8048B01F0D6FE01462046DF
:100DD800019100F0E3F80023F0EE480A019940463B
:100DE8001A4601F0F3FA25B10EB0BDEC028BBDE84E
:100DF800F0810125E4E700BF6F12033B2DE9F041C4
:100E080004469AB00027019100F08CF80199204619
:100E180000F088F940F6061304F1B0069FED400A89
:100E2800ADF8143004F1C0053046059901F024FCF2
:100E38004FF4007328469FED3A0AADF8183004F5D0
:100E4800C878069901F018FC40F6033240F20163B5
:100E58009FED330AADF8082004F140000299ADF87F
:100E68000C70C4F8D0600FAEC4F8D45007ADADF81C
:100E78001030DDE9032301F02BFB2046FFF72AFFA2
:100E88002046FFF773FF284601F090FB01230DF180
:100E98002C0E04F5C07C1593189347F61223169769
:100EA80019930223179395E80F008CE80F008EE83A
:100EB8000F0086E80F00BDF840301490ADF84E30B2
:100EC800BDF84230D4E9625EADF84C30C4E9655EE5
:100ED800BEF1000F04D072463946284611F060F87A
:100EE80013A9404603F0F2FF04F5D27001F072FB3B
:100EF8003021204600F036F8D4F8A850204600F0FB
:100F08004DF8284601F0B8FAD4F8AC50204600F065
:100F180045F828461AB0BDE8F04101F0ADBA00BF67
:100F280000000000704700BF202882B009D8084B95
:100F380003EB400213F81030507843EA002002B067
:100F4800704701230C2043EA002002B0704700BF1D
:100F5800FC1F0108143001F011BA00BF143001F071
:100F680009BA00BF38B500F1140504462DED028B0F
:100F7800284601F0F1F9284601F0FCF92846B0EEC0
:100F8800408A01F0E5F9D0ED007AF8EE677A88EE4C
:100F9800277ABDEC028B84ED0E7A38BD90ED0E0AEF
:100FA800704700BF253002F0CFB800BF10B540F23F
:100FB80003338EB000244FF60B7240F20341ADF8B4
:100FC800083009A80123ADF81020ADF824202246E6
:100FD800ADF80C100094029907940C94CDE90544DF
:100FE800CDE90A4401F0CAFE04A801232246039968
:100FF800009401F0C3FE09A801F0A6FF10B9012072
:101008000EB010BD04A801F09FFFA0420CBF022043
:1010180020460EB010BD00BF2DE9F04103239AB061
:10102800012700240646CDE914373B4BCDE9104390
:1010380040F20453CDE91647ADF84830FFF7B6FF44
:10104800B842054625D0022845D040F60132334B38
:101058000DF12C081894ADF82C200B981997CDF8A1
:101068004A3000F0E3F810A906F13C0002F0B4FFA2
:10107800302003224FF07E5341460D930E93CDE965
:101088000B02F26B06F1140001F02AF91AB0BDE860
:10109800F0811023214A06A906908DF828300DF119
:1010A8002C081F4BCDF84A2007930294CDE9180469
:1010B800CDE9080402A802F0C7F90823029A03A997
:1010C8004046ADF80C508DF80E40049505930B94EE
:1010D80000F0ECF8C7E700200121104B0DF12C08B7
:1010E8003A460094CDF84A304FF60B730C94ADF89D
:1010F8002C302346CDE9180140F601314046ADF8C1
:1011080018100699CDE90D4401F038FE21464046F5
:1011180001F026FFA7E700BF040204040406040345
:101128000704010B2DE9F04704462DED028B82B030
:1011380000294DD0012140F2011200230091ADF8A1
:1011480004208DF80630364A0127364B04F104098D
:10115800354904F12908626040F20272A36040F642
:101168000663E16004F1250AA4F82520A4F82930D3
:10117800278284F8277084F82B7004F0BFFA05469C
:1011880004F022F96946064650BB4DB304F130001D
:101198008DF8067004F03AFA072D3CD104F11405D5
:1011A8002046FFF739FF284601F0E4F82846B0EE5C
:1011B800408A01F0CDF8D0ED007AF8EE677A88EE33
:1011C800277A84ED0E7A02B0BDEC028BBDE8F08779
:1011D80040F2011300918DF80610ADF80430B2E723
:1011E80004F1300004F012FA072D11D049462046C8
:1011F80002F072FB0EB9002DD0D1504601F0BAFEB4
:10120800404601F0B7FE04F1120000F079F9C5E795
:10121800002EF2D1C2E74946204602F05DFBBDE749
:101228000508050905070506050A060610B584B070
:1012380003460124ADF8040003A8ADF80C30ADF85E
:101248000E4001F097FE214603A801F07DFF2046DD
:1012580004F0B8F8002103A801F076FF204604F056
:10126800B1F8214603A801F06FFF04B010BD00BF1C
:1012780010B5C2F3002384B00C46017C8DF80D2014
:1012880043EA4402FA2402238DF80C2003AA0094AE
:1012980002F070F918B10124204604B010BD0446CC
:1012A8000A2004F08FF8204604B010BD034670B53C
:1012B80043F8042B044684B007C983E80700A379E0
:1012C80083B91A210B461E22FA2523742046ADF84D
:1012D8000C20022303AA009502F04CF928B1012042
:1012E80004B070BD1B210B46EDE70A2004F06AF834
:1012F8004FF4B85200950223ADF80C20204603AAFB
:10130800217C02F037F90028E9D10A2004F05AF8C4
:1013180041F2027200950223ADF80C20204603AA80
:10132800217C02F027F90028D9D10A2004F04AF8D4
:10133800042200950223ADF80C20204603AA217C44
:1013480002F018F90028CAD10A2004F03BF8062256
:1013580000950223ADF80C20204603AA217C02F058
:1013680009F90028BBD10A2004F02CF841F2082220
:1013780000950223ADF80C20204603AA217C02F038
:10138800F9F80028ABD10A20064604F01BF80095AE
:10139800022303AA217C2046ADF80C6002F0EAF88B
:1013A80000289CD1304604F00DF8009522790C23D2
:1013B8002046002A8DF80C3003AA4FF0020314BF10
:1013C800622142218DF80D10217C02F0D3F800280B
:1013D80085D1304603F0F6FF2279D4E902310B4378
:1013E800DBB20AB943F0400362790AB143F0200343
:1013F8000E22FA258DF80D302046009502238DF82F
:101408000C2003AA217C02F0B5F800287FF467AF0E
:101418000A2003F0D7FF102200950223ADF80C2014
:10142800204603AA217C02F0A5F800287FF457AFD4
:101438000A2003F0C7FF122100950223ADF80C1013
:1014480003AA217C204602F095F800287FF447AFD4
:101458000A2003F0B7FF012209212046FFF708FF01
:10146800003818BF01203BE7F0B5102387B0234CA4
:10147800012200250126002702A920460195CDE971
:1014880002234FF48052CDE904670AF0FFFE64207E
:1014980004F0EAFB02A94FF480522046CDE9046724
:1014A80002261027CDE902670AF0F0FE0322102376
:1014B80002A92046CDE9022300230422CDE9042312
:1014C8004FF480520AF0E2FE40F23223042202A9CD
:1014D800019310232046CDE90223019A01230592A6
:1014E8004FF4805204930AF0D1FE40F606012046DC
:1014F8000AF0ECFE284607B0F0BD00BFA097002414
:101508001C4B00221C494FF0400C30B5054689B0F1
:101518000220596007219A601A620124DA620A22BD
:101528004FF4006EDC6006922022CDE90001042011
:101538000821CDE9020103201021CDE9040108208A
:101548006946C3E904024FF4C072181DC3E906C214
:101558004FF48052C3E909E20AF06EFE38B9284612
:10156800FFF782FF003818BF012009B030BD2046C0
:1015780009B030BD9C97002440410052614A0021C7
:10158800D0B513688EB00A91002B40F0B9805E4B3D
:1015980001214FF683700C2411600221D3F8D42066
:1015A8000026032742F48052C3F8D420D3F8D4206D
:1015B80002F480520092009AD3F8E02042F0100220
:1015C800C3F8E020D3F8E02002F010020192019A5B
:1015D800D3F8E02042F04002C3F8E020D3F8E0203E
:1015E80002F040020292029AD3F8E02042F0080288
:1015F800C3F8E020D3F8E02002F008020392039A2F
:10160800D3F8E02042F48072C3F8E020D3F8E02059
:1016180002F480720492049AD3F8E02042F0800227
:10162800C3F8E020D3F8E02002F080020592059A82
:10163800D3F8E02042F02002C3F8E020D3F8E020FD
:1016480002F020020692069AD3F8E02042F0040243
:10165800C3F8E020D3F8E0300C9403F004030793B8
:101668000323079A0B93CDE9080108A9274806F038
:1016780081F948F23712022308A925480C94CDE9CC
:101688000823CDE90A6706F075F94CF203720223C4
:1016980008A920480C94CDE90823CDE90A6706F08B
:1016A80069F940F2FF62022308A91B480C94CDE9AE
:1016B8000823CDE90A6706F05DF94FF60C7202239C
:1016C80008A916480C94CDE90823CDE90A6706F065
:1016D80051F94FF63F02022308A911480C94CDE9AD
:1016E8000823CDE90A6706F045F92022022308A954
:1016F8000A480C94CDE90A67CDE9082306F03AF9BF
:101708000EB0D0BD9897002400440258001002582B
:1017180000180258000C025800200258001C0258F9
:10172800001402582DE9F04FDFF8108406460D46E4
:10173800144608F118002DED028B89B000AF02F0B5
:1017480043FDD8F8183073B3D8F81C30D8F8049093
:10175800002B43690BBF4FF0080A4FF0100A4FF0F7
:10176800020B4FF0040BB9F1000F2AD0A200EA4691
:10177800012B02F1070222F00702ADEB020D6846C9
:10178800ADEB020D694600F03F81022B00F0D680D8
:10179800002B6FD02246C847D5462437BD46BDEC3E
:1017A800028BBDE8F08FD8F81C30002BF5D0D8F8A4
:1017B80004904FF0080A4FF0020B4369B9F1000F8B
:1017C800D4D1FB61D8F80030BB61002BE5D0D548F7
:1017D80002F06CFD6B46BBF1020F786108EE103A1F
:1017E800FB6900F083816A465146A2EBC402954624
:1017F8006200EA46B2FBFBF2AAEBC40085460AEB9C
:101808008200EE46F861ADEB010DF8690EEB820C33
:10181800C7F810C0EC46ADEB010D00EB8201CCF827
:101828000400CCF8081001EB82013869E946CCF8CD
:101838000C1000EB8201CCF800A001EB8202C9E990
:1018480000E0C9E90212012B00F06483022B00F0CA
:101858006C82002B00F08081620849466046BB69B3
:10186800984718EE103A24379D46BD46BDEC028BCA
:10187800BDE8F08F002C8DD01A46D8ED0C6A9FED8C
:10188800B27A8446331D36F922E00CF1080C07EED3
:1018980090EA33F922E00232F8EEE77A944267EEF2
:1018A800877A67EEA67A4CED027A07EE90EAF8EEB0
:1018B800E77A67EE877A67EEA67A4CED017AE2D886
:1018C800F9612246C847984ED8ED0D6A0020F9699B
:1018D8002B1D9FED9E7A9FED9E6ADFED9E5A22E0BA
:1018E800F4EEC67AF1EE10FAC0F2C88447F6FE723A
:1018F800D1ED017A45F8202066EEA77AF4EEC77A92
:10190800F1EE10FA40F2F080F4EEC67AF1EE10FA39
:10191800C0F2D58447F6FE7243F820200230083121
:1019280084427FF639AFD1ED007A66EEA77AF4EEFD
:10193800C77AF1EE10FAD3D83246D9E7002C3FF433
:1019480029AFD8ED0C6A84469FED787A0022331DC2
:101958008E4656F822100CF1080C07EE901A53F830
:1019680022100232F8EEE77A944267EE877A67EE41
:10197800A67A4CED027A07EE901AF8EEE77A67EE4F
:10198800877A67EEA67A4CED017AE2D8714622464C
:10199800C7F81CE0C847664ED8ED0D6A0020F96903
:1019A8002B1D9FED6A7A9FED6A6ADFF894C120E0EB
:1019B800F4EEC67AF1EE10FAC0F279843246D1ED2F
:1019C800017A45F8202066EEA77AF4EEC77AF1EEA0
:1019D80010FA40F28780F4EEC67AF1EE10FAC0F2FF
:1019E8005E84324643F820200230083184427FF674
:1019F800D3AED1ED007A66EEA77AF4EEC77AF1EEAF
:101A080010FAD5D86246DAE7002C3FF4C3AED8ED19
:101A18000C6A86469FED477A4FF0000C331D56F846
:101A28002C200EF1080E82F40002A2F5000207EE47
:101A3800902A53F82C200CF1020CF8EEE77A82F485
:101A480000026445A2F5000267EE877A67EEA67A7F
:101A58004EED027A07EE902AF8EEE77A67EE877A7B
:101A680067EEA67A4EED017AD9D8F9612246C847C1
:101A7800314ED8ED0D6A0020F9692B1D9FED337AA0
:101A88009FED336ADFF8BCC01FE0F4EEC67AF1EED2
:101A980010FAC0F2FC833246D1ED017A45F82020D5
:101AA80066EEA77AF4EEC77AF1EE10FA18D9F4EEDA
:101AB800C67AF1EE10FAC0F2DA83324643F82020F3
:101AC8000230083184427FF667AED1ED007A66EEC7
:101AD800A77AF4EEC77AF1EE10FAD6D86246DBE7B9
:101AE8006246EBE762467DE7324615E7A100D64637
:101AF8006208073121F00701ADEB010DEA46ADEBB5
:101B0800010D6946ADEB0E0D0AEB8200EC46ADEB1C
:101B18000E0D01EB8202F861E946CCE900A0C9E9A3
:101B2800001290E6F09700240280FFFF00000030CA
:101B38000082FF7F0000003482FF7F00D4970024DA
:101B4800007E00807E0080FF0000003804FF7FBF19
:101B580004FF7F3F00FEFF46002C00F0C982BBF166
:101B6800020FD8F8242000F0FA827969C7F80490A7
:101B780002EB810E5FED0C5A8A00DCF808100EF1BA
:101B880004007A611A46DCF80C303B61331DD7F843
:101B980010903D61FD69C7E902CB8C46834636F952
:101BA8002210D8ED0C7A06EE101A33F9221006EE40
:101BB800901A3EF92210B8EEC66A07EE101AF8EE2F
:101BC800E66A3BF92210B8EEC77A26EE256A66EE79
:101BD800A56A27EE257A26EE276A66EEA76A27EE1B
:101BE800277A07EE901A51080232F8EEE77A0AEBE4
:101BF8008100944280ED006A05EB810067EEA57ACA
:101C0800C0ED006A0CEB810009EB810180ED007AE0
:101C180098ED0C7A67EE877AC1ED007ABFD8D7F8CD
:101C280004903D69D7E902CB60466208BB69494622
:101C38009847D8F82C307A69D8ED0D6A1A441FED08
:101C48003D7A1FED3D6A2B1D904602F1040A5FEDB7
:101C58003F5A0022A84ED9E900EC51E0F4EEC67ACA
:101C6800F1EE10FAC0F2C78247F6FE7045F822007E
:101C78000CEB0100D0ED007A66EEA77AF4EEC77A95
:101C8800F1EE10FA4BD9F4EEC67AF1EE10FAC0F282
:101C9800BA8247F6FE70BBF1020F43F822002BD040
:101CA800D9F808000844D0ED007A66EEA77AF4EE79
:101CB800C77AF1EE10FA36D9F4EEC67AF1EE10FAD8
:101CC800C0F2CD8247F6FE7048F82200D9F80C0021
:101CD8000144D1ED007A66EEA77AF4EEC77AF1EE08
:101CE80010FA1ED9F4EEC67AF1EE10FAC0F2AF82FD
:101CF80047F6FE714AF82210023294427FF6B1ADDF
:101D080051080EEB81008900D0ED007A66EEA77AC3
:101D1800F4EEC77AF1EE10FAA0D83046A6E73046BE
:101D2800B9E73146E6E73046CEE7002C00F0E0811F
:101D3800BBF1020FD8F8243000F0E1817A69DCF8B1
:101D4800081003EB820EC7F804909300DFED6B5A7E
:101D58000EF1040000227B61DCF80C303B61331D7E
:101D6800D7F810903D61FD69C7E902CB8C468346E0
:101D780056F82210D8ED0C7A07EE101A53F82210F4
:101D8800B8EEC76A07EE101A5EF82210F8EEC76AB6
:101D980007EE101A26EE256A5BF82210B8EEC77A0D
:101DA80066EEA56A26EE276A27EE257A66EEA76A0A
:101DB80027EE277A07EE901A51080232F8EEE77AF2
:101DC8000AEB8100944280ED006A05EB810067EE22
:101DD800A57AC0ED006A0CEB810009EB810180ED6A
:101DE800007A98ED0C7A67EE877AC1ED007ABFD851
:101DF800D7F804903D69D7E902CB60466208BB6911
:101E080049469847D8F82C307A69D8ED0D6A1A44B3
:101E18009FED3E7A9FED3E6A131D9246DFF8E4C0BF
:101E28000022FB612B1D364ED9E9008E4EE0F4EE00
:101E3800C67AF1EE10FAC0F2FC81304645F822006D
:101E48000EEB0100D0ED007A66EEA77AF4EEC77AC1
:101E5800F1EE10FA49D9F4EEC67AF1EE10FAC0F2B2
:101E6800EF813046BBF1020F43F822002AD0D9F89F
:101E780008000844D0ED007A66EEA77AF4EEC77A37
:101E8800F1EE10FA35D9F4EEC67AF1EE10FAC0F296
:101E9800C98130464AF82200D9F80C000144D1ED36
:101EA800007A66EEA77AF4EEC77AF1EE10FA1ED938
:101EB800F4EEC67AF1EE10FAC0F2AD813146F86957
:101EC80040F82210023294427FF6CBAC510808EB5E
:101ED80081008900D0ED007A66EEA77AF4EEC77A21
:101EE800F1EE10FAA3D86046A8E76046BAE7614663
:101EF800E5E76046CEE700BF0280FFFF0000003044
:101F08000082FF7F007E00800000003404FF7FBF56
:101F180004FF7F3F002C00F0EB807A690021D8F89D
:101F28002430C7F8109003EB820ED7F81C9093006A
:101F3800FD610EF104021FED0C6A7B61331D15462D
:101F480056F821204808D8ED0C6ABBF1020F82F43C
:101F58000002A2F5000207EE902A53F8212082F42D
:101F68000002B8EEE77AA2F5000227EE067A07EE3D
:101F7800902A0AEB8002F8EEE77A27EE267A67EED7
:101F8800867A82ED007A09EB80024FEA800067EEDC
:101F9800A67AC2ED007A27D05EF8212082F40002EA
:101FA800A2F5000207EE902A55F8212082F40002DB
:101FB800B8EEE77AA2F5000227EE067A07EE902A35
:101FC800DCF80820F8EEE77A024427EE267A67EE76
:101FD800867A82ED007A98ED0C7ADCF80C2067EEB0
:101FE800877A0244C2ED007A02318C42A8D8D7F829
:101FF800109060466208BB694946FD699847D8F861
:102008002C307A69D8ED0D6A1A441FED407A1FED1D
:10201800406A131D9246DFF8C4C20022FB612B1DE3
:10202800AB4ED9E9008E4EE0F4EEC67AF1EE10FA26
:10203800C0F2C580304645F822000EEB0100D0ED15
:10204800007A66EEA77AF4EEC77AF1EE10FA49D96B
:10205800F4EEC67AF1EE10FAC0F2BF803046BBF15A
:10206800020F43F822002AD0D9F808000844D0ED1E
:10207800007A66EEA77AF4EEC77AF1EE10FA35D94F
:10208800F4EEC67AF1EE10FAC0F2AE8030464AF8A5
:102098002200D9F80C000144D1ED007A66EEA77A47
:1020A800F4EEC77AF1EE10FA1ED9F4EEC67AF1EE24
:1020B80010FAC0F28B803146F86940F822100232DB
:1020C80094427FF6CEAB510808EB81008900D0ED31
:1020D800007A66EEA77AF4EEC77AF1EE10FAA3D882
:1020E8006046A8E76046BAE76146E5E76046CEE79E
:1020F800224649466046BB699847FFF7B2BBC7F816
:1021080010B0002298ED0C6A331DDFED726AD7F823
:102118001CB0786956F8221007EE901A53F822106E
:10212800B8EEE77A07EE901A51080232F8EEE77A2D
:1021380027EE267A0AEB810E94420BEB810167EEBB
:10214800A67A27EE067A67EE867A8EED007AC1EDDA
:10215800007ADFD88300D7F810B07B614DE61A46C5
:10216800C7F810B098ED0C6A331DDFED5B6AD7F83D
:102178001CB0786936F9221007EE101A33F92210CC
:1021880007EE901AB8EEC77A51080232F8EEE77AED
:1021980027EE267A0AEB810E94420BEB810167EE5B
:1021A800A67A27EE067A67EE867A8EED007AC1ED7A
:1021B800007ADFD88300D7F810B07B6134E5F0EE01
:1021C800675AFEEEE45A15EE900A34E7F0EE675AC5
:1021D800FEEEE45A15EE901A6EE7F0EE675AFEEE40
:1021E800E45A15EE900A3AE7F0EE675AFEEEE45A22
:1021F80015EE900A4BE767EEA57AFDEEE77A17EE43
:10220800900A00B232E567EEA57AFDEEE77A17EE9E
:10221800900A00B23FE5F0EE675AFEEEE05A15EE7E
:10222800901A4CE6F0EE675AFEEEE05A15EE900A68
:1022380030E6F0EE675AFEEEE05A15EE900AFDE53C
:10224800F0EE675AFEEEE05A15EE900A0AE667EEDF
:10225800A57AFDEEE77A17EE901A09B24AE567EE1D
:10226800A57AFDEEE77A17EE900A00B22CE5F0EEBB
:10227800675AFEEEE45A15EE902A1FE467EEA57A37
:10228800FDEEE77A17EE902A12B2FFF731BBF0EEB7
:10229800675AFEEEE45A15EE902AFFF7FDBBF0EE02
:1022A800675AFEEEE05A15EE902AFFF79BBBF0EE58
:1022B800675AFEEEE05A15EE902AFFF780BB67EEEC
:1022C800A57AFDEEE77A17EE902A12B2FFF724BB43
:1022D80082FF7F0000000030000000387E0080FF91
:1022E80030B5184C154685B0046004F1080EEC466C
:1022F8000FC98EE80F00D4ED047AF5EEC07A8CE8A9
:102308000F00F1EE10FA1ADDB7EE006A94ED057AC7
:1023180027EE277AC6EE276A84ED0D7AC4ED0C6A9B
:102328006DB1204640F8185F01F04EFF0649036979
:102338000020064A2162A262E36005B030BD012098
:1023480005B030BDD49700240020003000000030D4
:1023580000680830704700BFB1F5807F03680A46FF
:1023680028BF4FF48072B1F5807F9A6094BF002037
:10237800012070470068183001F086BF30B5046846
:1023880083B008480D46A368A26A216A9B000090A2
:1023980004F1180001F01AFF0020C4E9000503B099
:1023A80030BD00BF2D17000810B4074B4FF07E5109
:1023B80030240022032019619C60D8605DF8044B2A
:1023C8005961C3E906227047D4970024F6EE007AD3
:1023D8009FED166A20EE207A0160F7EE006A80ED24
:1023E800036A80ED020A27EE277AC6EE877AF4EEB2
:1023F800E67AF1EE10FA11DDF0EE667A4FF07E51D2
:102408004FF0000C02760022C0ED017AC0F814C02B
:10241800016143768276C0ED070A7047F4EEC67A0A
:10242800F1EE10FAEAD5F0EE467AE7E70000000090
:102438000268037E128807EE902AFBEEC87A1BB169
:10244800B7EE007A77EE677AD0ED056A90ED047AF8
:1024580077EEE67A437E67EE877A0BB1F1EE677A1C
:1024680090ED030A90ED017A77EEC07AA7EE270A7D
:1024780080ED030A704700BF837E80ED020AABB986
:10248800D0ED077A27EE800AF6EE007AB7EE007AEA
:1024980020EE270AC7EE007AF4EEC77AF1EE10FABA
:1024A80007DDF0EE477AC0ED017A7047DFED067A76
:1024B800E8E7F5EEC07AF1EE10FAF4D5DFED037A2D
:1024C800C0ED017A704700BF6F12033B00000000A7
:1024D80030B585B004460025ADF80C10ADF80820DD
:1024E800ADF8043002F06CFFBDF80C204FF4807397
:1024F800206004F118002283BDF808206383E38379
:10250800A283257100F036FD04F11C0000F032FDB5
:102518009FED060A019904F1080000F0ADF84FF6A6
:10252800FF736562238405B030BD00BF0000000062
:10253800F8B5044602F044FF00262368267183425A
:1025480005D104F10800BDE8F84000F0AFB8012754
:1025580094F82050206004F11800BD40277100F065
:10256800E5FD6DB2284394F82150BD4084F8200061
:1025780004F11C0000F0DAFD94F820306DB26662B8
:1025880003F003032843022BC0B284F8210009D0CA
:1025980000F003000228D4D1002BD2D14FF0FF3332
:1025A8006362CEE78307CCD16762CAE7074A11881E
:1025B80030B481800024064D91884FF48072856084
:1025C8000460C180C26030BC704700BFB81F0108FA
:1025D8000040003000220A2302700371704700BFD8
:1025E80030B585B004469FED110A9DF82050ADF82E
:1025F8000C100399ADF808202A46ADF804308DED8B
:10260800000A0CF057FF9DED000A2A46029904F1D2
:102618001C000CF04FFF9DED000A2A46019904F1B9
:10262800380005B0BDE830400CF044BF00007A44E3
:1026380038B50C46054691ED000A0CF05FFF94EDA5
:10264800010A05F11C000CF059FF94ED020A05F18E
:102658003800BDE838400CF051BF00BF10B5044643
:102668000CF05EFF04F11C000CF05AFF04F1380076
:10267800BDE810400CF054BF70B5044682B0C1F3F9
:102688000726CDB2ADF8041002F09AFE4FF480721E
:102698004FF001232060A01DA571A280E671A36000
:1026A80002B0BDE8704000F065BC00BF38B5044614
:1026B80002F086FE002223682271834210D0012294
:1026C800A57AE37A954020602271A01D6DB243B9C6
:1026D80000F02CFD40B22843C0B27F28A0720AD077
:1026E80038BD00F023FDB0FA80F040092843C0B29D
:1026F8007F28A072F4D102F063FE07EE900AF8EE8C
:10270800677AC4ED037A38BD00B583B04FF0000E88
:102718004FF0030C4274ADF80410BDF8043080F893
:1027280010E0A0F802C0038003B05DF804FB00BF0E
:102738002DE9F04FDFF81C8300258DB0C04C0370E5
:1027480008F140034260074601920E4620222946BE
:102758004046C4F86831C4F86481CDE90255CDE932
:102768000455CDE90655CDE90855CDE90A550FF0D0
:1027780017FC2022294604F5A170C4F83151C4F889
:102788003551C4F83951C4F83D510FF009FC019B8B
:1027980084F8485284F830317A68002A6AD02B4687
:1027A80004F59871454606F1100A9E46F01856F849
:1027B80003B0E2180EF1010ED0F80CC0D0F8049066
:1027C800D0F8088044F803B0C2F80CC04FF0000CF1
:1027D800C2F80490C2F80880008A25F802CB10825B
:1027E8001AF8032001F8012F002A70D07A684FF0F8
:1027F80001001233724584F84802D7D84FF480227A
:1028080090489DF8043008214FF000084FF0000967
:10281800C4F884310023C4E95B020122C4F874318E
:1028280084F88031C4E95E2194F84812C4E96489C7
:10283800A9B3C4F89821002284F8813184F888313A
:102848003B78C4E96722002B38D0012200200121FF
:10285800013B84F8A421C4E96C01082B30D8DFE8D7
:1028680013F0BD00C200C700CC00D100D600DB00C9
:10287800E100E8009DF804300121C4F87421C4F88F
:1028880084314FF4802384F880216E4AC4E95B23A5
:1028980008230022C4E95E130023C4E9642301234A
:1028A800002284F88131002384F888310323C4F896
:1028B80098313B78C4E96722002BC6D184F8A4314B
:1028C800614803F009FE034638B1FFBEFEE77A68A7
:1028D800123372453FF66AAF90E702A95A4802934D
:1028E80003F058FF8246002876D1042240F2FF7197
:1028F8000A90CDE9081294F83021002A00F0F380FC
:102908004FF006080AEBCA034FEACA0904EB43036F
:102918005B7C072B07D8DFE803F0595C5653504D12
:102928004A04072307930FFA8AF6D14406EBC60632
:1029380004EB490904EB46077500384600F01AFB1A
:1029480099F81030042B00F3AA80022B00F3BD8005
:1029580000F0B98004EB0A03002283F8202114F860
:102968001630002B78D0022B00F08A80012B40F023
:10297800B2807B78012B00F0B080002B334B18BF5E
:10298800002305A93048CDE9053803F0D1F900281E
:1029980040F0AC800AF1010A94F830315FFA8AFA03
:1029A800534540F2A0802A4B53F82A80AAE7062311
:1029B8000793B8E705230793B5E704230793B2E71E
:1029C80003230793AFE702230793ACE7002307939A
:1029D800A9E701230793A6E7FFBEFEE703224023EA
:1029E800C4E96A236CE707226023C4E96A2367E71E
:1029F8000F228023C4E96A2362E71F22A023C4E9C7
:102A08006A235DE73F22C023C4E96A2358E77F228F
:102A1800E023C4E96A2353E7FF224FF48073C4E933
:102A28006A234DE740F2FF124FF49073C4E96A231A
:102A380046E740F2FF324FF4A073C4E96A233FE748
:102A480010980024002002407C9900240002B02540
:102A580040200108004100307B78062B37D0072B37
:102A68003DD0022B4AD0032B4AD0002B4CD0012B4F
:102A780048D0042B4AD0052B254B18BF002380E7EC
:102A88007B78042B25D0052B2BD08BB3012B31D091
:102A9800022B31D0032B1F4B18BF002371E70323F0
:102AA800043504EB0A0B4FF0000925448BF820315C
:102AB800284609F1010900F05DFA9BF82031043538
:102AC8004B45F5DC4BE70123EAE70223E8E7124B25
:102AD80057E7124B55E7002353E7114B51E7114BCA
:102AE8004FE7114B4DE70DB0BDE8F08FFFBEFEE795
:102AF8000E4B46E70E4B44E70E4B42E70E4B40E7C2
:102B08000E4B3EE70E4B3CE70E4B3AE70E4B38E7D1
:102B18000000B84F002090360800900C1000C0103C
:102B28002000F0148000501D000180210004002ABC
:102B38000008302E001060320040C03A0080F03E9D
:102B480000005247000021430000844B38B5094C6F
:102B580040F2FF724FF0011104F5B675284603F0F4
:102B6800C7FD94F83021D4F864112846BDE83840F0
:102B780003F032BB10980024034B0F29D3F86401EB
:102B880098BF00EB4100704710980024214B026861
:102B98009A4200D07047204A00232048D2F8D81023
:102BA80030B51F4C41F0200183B0C4F8D001092092
:102BB80004F5E875C4E975034FF48060C2F8D810CD
:102BC800D2F8D8204FF40061C4E9773094F848026D
:102BD80002F02002C4F8E4114FF400519842019227
:102BE8002846C4F8E811C4E97C33019B14BF0023CC
:102BF8004FF48073C4F8EC3103F0F2FF08B1FFBE64
:102C0800FEE704F5B673C4F8B851C4F8083203B047
:102C180030BD00BF0020024000440258400002407E
:102C280010980024014804F053BB00BFE099002429
:102C380002682DE9F84F4B4B9A4201D0BDE8F88F56
:102C4800494D95F84832002BF8D095F83031002BD3
:102C580077D0002405F10C0905F5A17605F59877DC
:102C6800A04613E003F0010117F811BCA9F1080010
:102C780000F06AFABBF1010F25D895F8303101341C
:102C880009F112090236A2B293422BD917F8012F83
:102C9800002AF4D0D5F864310021327833F81400D2
:102CA800D5F8683103EB041323F812003388013395
:102CB8009BB233805FFA83FA3A789A42D2D88A462E
:102CC800A6F80080D0E7CAF34001A9F1040000F09B
:102CD8003BFABBF1020FCAF38001CED0484600F0A0
:102CE80033FACAE7002395F8480220490922984296
:102CF800C5F8D8314FF48060C5F8D011C5F8D42193
:102D08004FF400614FF40052C5F8DC3108BF4FF4AE
:102D18008073C5F8E821C5E9780100221448C5E99F
:102D28007B32C5F8F42103F05BFF08B1FFBEFEE774
:102D380095F83021D5F864110E48BDE8F84F03F036
:102D48004BBA0A4909224FF48060C5F8D831C5E961
:102D580074124FF400614FF40052C5E97730C5E9A9
:102D68007912DAE70020024010980024400002405F
:102D7800E09900247C990024704700BF10B592B0F8
:102D8800ADF804100180C9B2149C0B29C460C0E9D5
:102D980001233FD090F801C0BCF10F0F3AD8022AA6
:102DA8003FD0032A02D0012A00D000220E92012B24
:102DB80002D0022B18BF0023022C0F932CD0032C17
:102DC8002AD0012C28D000230A29109327D85C4A3E
:102DD80002EB812202610A2914D8DFE801F0A395E9
:102DE80087796B5D4F4133250600564BD3F8E010C9
:102DF80041F48061C3F8E010D3F8E03003F4806355
:102E08000C930C9B01230DA9104603FA0CF30D93A8
:102E180004F0B0FD12B010BD0A291094D7D90022D1
:102E2800D8E711220E92C2E7464BD3F8E01041F4DE
:102E38000071C3F8E010D3F8E03003F400730B938B
:102E48000B9BDFE73F4BD3F8E01041F48071C3F8E8
:102E5800E010D3F8E03003F480730A930A9BD1E7BB
:102E6800384BD3F8E01041F08001C3F8E010D3F8F4
:102E7800E03003F080030993099BC3E7314BD3F893
:102E8800E01041F04001C3F8E010D3F8E03003F05F
:102E980040030893089BB5E72A4BD3F8E01041F0AC
:102EA8002001C3F8E010D3F8E03003F020030793C3
:102EB800079BA7E7234BD3F8E01041F01001C3F8B4
:102EC800E010D3F8E03003F010030693069B99E76F
:102ED8001C4BD3F8E01041F00801C3F8E010D3F818
:102EE800E03003F008030593059B8BE7154BD3F8F7
:102EF800E01041F00401C3F8E010D3F8E03003F02B
:102F080004030493049B7DE70E4BD3F8E01041F0D3
:102F18000201C3F8E010D3F8E03003F00203039392
:102F2800039B6FE7074BD3F8E01041F00101C3F8AA
:102F3800E010D3F8E03003F001030293029B61E74D
:102F4800000002580044025808B50121437800697E
:102F5800994089B204F016FF003818BF012008BD57
:102F680001230A464178006903FA01F189B204F0A5
:102F78000FBF00BF8378022B30B504468FB037D01F
:102F8800032B33D0012B31D000230A93E378012B94
:102F98002AD0022B28D000230B93002320460C9321
:102FA80002F040FD0546204602F044FD23780990D2
:102FB800082B13D8DFE803F01F3245586B7E91A425
:102FC8000500594BD3F8E02042F48072C3F8E020A2
:102FD800D3F8E03003F480730893089B09A92846C6
:102FE80004F0C8FC0FB030BD0B93D6E70A93CDE7C9
:102FF80011230A93CAE74C4B09A92846D3F8E020C5
:1030080042F00102C3F8E020D3F8E03003F00103F6
:103018000093009B04F0AEFC0FB030BD424B09A9F1
:103028002846D3F8E02042F00202C3F8E020D3F8A3
:10303800E03003F002030193019B04F09BFC0FB006
:1030480030BD394B09A92846D3F8E02042F00402E4
:10305800C3F8E020D3F8E03003F004030293029BA6
:1030680004F088FC0FB030BD2F4B09A92846D3F8CF
:10307800E02042F00802C3F8E020D3F8E03003F083
:1030880008030393039B04F075FC0FB030BD264B77
:1030980009A92846D3F8E02042F01002C3F8E0203E
:1030A800D3F8E03003F010030493049B04F062FCAF
:1030B8000FB030BD1C4B09A92846D3F8E02042F0D8
:1030C8002002C3F8E020D3F8E03003F02003059392
:1030D800059B04F04FFC0FB030BD134B09A92846DF
:1030E800D3F8E02042F04002C3F8E020D3F8E03003
:1030F80003F040030693069B04F03CFC0FB030BD80
:10310800094B09A92846D3F8E02042F08002C3F809
:10311800E020D3F8E03003F080030793079B04F026
:1031280029FC0FB030BD00BF0044025838B5054631
:1031380002F078FC0446284602F07CFC0146204652
:10314800BDE8384004F01EBE70B506460D4602F0D4
:1031580069FC0446304602F06DFC2A1E01462046F2
:1031680018BF0122BDE8704004F012BE00231222ED
:1031780070B586B0CDE9022304930368032B01D808
:1031880004230593061D841D304602F04BFC0546BA
:10319800304602F04FFC034601A92846019304F08B
:1031A800E9FB204602F03EFC034620461C4602F09E
:1031B80041FC01A903462046019304F0DBFB06B05D
:1031C80070BD00BF634A0368934210B58CB028D025
:1031D800614A934258D0614A934200F09480604A11
:1031E800934201D00CB010BD5E4C5F48D4F8E0307B
:1031F80043F00203C4F8E030D4F8E03003F00203EF
:103208000A930A9BFFF7B2FFD4F8F43043F0800327
:10321800C4F8F430D4F8F43003F080030B930B9B1C
:10322800E0E7504C5148D4F8E03043F00203C4F8CA
:10323800E030D4F8E03003F002030193019BFFF77C
:1032480095FFD4F8E83000221F2043F400131146FC
:10325800C4F8E830D4F8E83003F400130293029B72
:10326800D4F8D83043F00103C4F8D830D4F8D830B3
:1032780003F001030393039B03F000FB1F200CB032
:10328800BDE8104003F038BB364C3948D4F8E0307C
:1032980043F08003C4F8E030D4F8E03003F0800352
:1032A8000493049BD4F8E03043F00203C4F8E03000
:1032B800D4F8E03003F002030593059BFFF756FFAF
:1032C800D4F8E8300022212043F480031146C4F8E2
:1032D800E830D4F8E83003F480030693069BD4F86A
:1032E800D83043F00103C4F8D830D4F8D83003F00C
:1032F80001030793079B03F0C1FA21200CB0BDE836
:10330800104003F0F9BA1B48FFF730FF154B0022B5
:103318004820D3F8E840114644F40004C3F8E840D4
:10332800D3F8E84004F400040894089CD3F8D84083
:1033380044F00104C3F8D840D3F8D83003F00103AF
:103348000993099B03F09AFA48200CB0BDE8104095
:1033580003F0D2BA0054004000580040005C00401E
:10336800001C005800440258E89C0024609A00247D
:10337800389B0024109C00242DE9F0431A4B87B099
:1033880000254FF010099E46EC46184BFF22E046F8
:1033980067461A700EF118060EF13004CDE9005593
:1033A800CDE90255ADF80090BCE80F00CDE9045511
:1033B800AEE80F009CE803000095ADF800908EE899
:1033C8000300B8E80F000FC69CE803000095ADF8AD
:1033D800009086E803000FCF0FC49CE8030084E840
:1033E800030007B0BDE8F083040000245C9A0024C1
:1033F80010B5EFF3108472B6084B1A78120602D58E
:1034080004B962B610BD1B78D82205485BB202FB2E
:103418000300143003F05CFFF2E700BF5C9A00245D
:10342800609A0024014805F04BBB00BFEC9A0024C9
:10343800014805F045BB00BFC49B0024014805F0C6
:103448003FBB00BF9C9C00242DE9F0430F68D824A3
:103458003F4D85B007FB04F4032F05EB040303601D
:1034680040DCCB680E46012B3CD84DD04FF0D80835
:10347800B646DFF8FC9008FB0758BEE80F00C446C4
:10348800ACE80F00DEF800300DF1100ECCF800307B
:10349800D8F808C099E80F000EE90F000EEB870373
:1034A800BCF1010F53F8103CC8F88C3031D0BCF196
:1034B800020F42D0BCF1000F35D0317C8C34D823B8
:1034C800002201202C4403FB07534900C3E92602CC
:1034D800C3F894102046C3E92822C3E92A2205F03C
:1034E800E1F818B1012005B0BDE8F0830146204697
:1034F80005F0F2FA0028F5D10146204605F016FB42
:10350800003818BF0120EEE70B7C103B672BADD9C4
:10351800E8E702F0F1F80F4B98420CBF0E4B0F4B47
:10352800C8F89030C9E702F0E7F80A4B98420CBF98
:103538000B4B0C4BC8F89030BFE702F0DDF8054B99
:1035480098420CBF084B094BC8F89030B5E700BF4C
:10355800609A0024000E27072D0FB0303211D020BA
:103568005F4390608A62E030200BA0101A09801037
:10357800C01F01082DE9F041D0F8008082B00D4647
:1035880017461E4608F18C04204605F0A1FA2028AB
:10359800FAD1D8F80C3073B96D002046089C334630
:1035A8003A46A9B2009405F0D3F8003818BF0120B4
:1035B80002B0BDE8F081089B32463946204605F046
:1035C8009BF9F2E7044B10221A7483F8E82083F879
:1035D800C02183F898227047609A002430B50023F0
:1035E80095B04FF48071062204460B93069213930C
:1035F800CDE90C13CDE90E33CDE9113302F07EF895
:1036080007282BD004F1100541F2883206A9284674
:1036180006F09EF828B10123184684F85C3015B0EE
:1036280030BD0222022306A92846CDE90023102234
:103638000123CDE9022300224FF48003CDE90423BE
:1036480005224FF0807306926A460F9341F2883341
:1036580006F0EAF90028DED115B030BD03230120B9
:1036680084F85C3015B030BD70B50023A4B04FF0BD
:1036780080724FF480750446ADF806300D93CDE99D
:1036880010320122CDE90E53CDE91223CDE91433CE
:10369800002943D0F02300F1100508AEADF806303C
:1036A800C02341F2883231462846089306F050F884
:1036B80028B10123184684F85C3024B070BD41F26B
:1036C80088320DF10601284606F0ACF803460028BA
:1036D800EFD105224FF480711E93284616924FF0C1
:1036E80080721B9321931F9202AA9FED1F7BCDE945
:1036F8001C13CDE922338DED027B9FED1D7B41F23A
:10370800883316A98DED047B9FED1B7B8DED067B21
:1037180006F08AF90028CCD124B070BD00F110055C
:1037280008AE612341F2883231462846089306F0F4
:103738000FF80028BDD141F288320DF10601284664
:1037480006F0EEF80028B4D1BDF80630204623F084
:10375800780343F04003ADF80630FFF73FFF002839
:103768009ED0A6E7AFF30080000000000100000033
:1037780010000000010000000000000000004000F0
:103788002DE9F04F00234FF4807501264FF0807823
:1037980004462DED028BABB08DF8073013932193BF
:1037A800299314950E96CDF85C80CDE91533CDE9B3
:1037B8001863CDE91A33CDE92253CDE92433CDE995
:1037C800273306231C9301F099FF072808D004F13A
:1037D800100741F288321CA9384605F0B9FF40B1FC
:1037E8000123184684F85C302BB0BDEC028BBDE891
:1037F800F08F4FF0020A4FF0020B4FF0050941F22B
:10380800883308AA1CA93846CDF89480CDF8709062
:103818009FED2D8BCDE908AB4FF0000A4FF4800BDC
:103828008DED0A8BCDE90CAB06F0FEF80028D7D158
:1038380041F2883238460EA905F08AFF0028CFD118
:10384800402341F288320DF1070138468DF80730E0
:1038580005F0E8FF0028C3D141F288330EA902AA77
:103868003846CDF83890CDF85C809FED197B8DED0A
:10387800048BCDE906AB8DED027B06F0D5F8034647
:103888000028ADD1CDF870904FF00109CDF89480A3
:103898004FF00008219308AA29931CA938462295BD
:1038A800CDE92333CDE9273341F288338DED0A8BF7
:1038B800CDE90CABCDE9088906F0B6F8002893D01D
:1038C800304684F85C608FE71000000001000000BB
:1038D80040000000400000002DE9F043624CA3B016
:1038E8000D46046001F00AFF072800F0A980286847
:1038F80023466968AA6807C31E46AB8926F8043BB5
:103908003046257B677B05F005FFE0B9574B012D55
:103918004FF00108E061236114BF4FF480134FF4A6
:103928000003C4E9058893FAA3F3B3FA83F34FF4C9
:103938008079013BC4F82490C4E90B003046236227
:1039480005F07CFE38B10122134684F85C20184645
:1039580023B0BDE8F08366230B90139041F28832C0
:1039680006A90693CDE90C90CDE90E00CDE911002A
:10397800304605F0EDFE0028E5D1992341F2883262
:1039880006A93046069305F0E3FE0028DBD105239F
:103998001C9019906A4614934FF08073219014A9D3
:1039A8001D9341F288339FED2A7BCDE91A90CDE92A
:1039B8001F008DED007B9FED287B30468DED027B4F
:1039C8009FED277B8DED047B06F02EF80028BAD1F9
:1039D80029462046FFF748FE0028B4D12046FFF7C5
:1039E800CFFE03460028AED1002FB0D11893304641
:1039F8000027002606AA14A9CDF86890CDE91F3340
:103A0800EB2314934FF440631B934FF40053179325
:103A18004FF440431C93A0231693062319934FF0A9
:103A2800805321934FF04073CDE906671D9306F04C
:103A380073F8034600288AD0434684F85C8086E7FA
:103A480001230322184684F85C2023B0BDE8F083E4
:103A5800000000000100000010000000010000004C
:103A68000000000000004000C09D002400500052EB
:103A78002DE9F04F8FB0414B0024026800AF9A4205
:103A88007C63C7E90944C7E90B4403D03C37BD460A
:103A9800BDE8F08F3A4B40F609213A48EB46D3F897
:103AA800D42007F11C0607F1220A4FF0020942F45C
:103AB80080424FF00308C3F8D420D3F8D42002F48E
:103AC8008042BA60BA68D3F8E02042F04002C3F8F6
:103AD800E020D3F8E02002F04002FA60FA68D3F858
:103AE800E02042F02002C3F8E020D3F8E02002F002
:103AF80020023A613A69D3F8E02042F01002C3F894
:103B0800E020D3F8E02002F010027A617A69D3F855
:103B1800E02042F00202C3F8E020D3F8E030F86178
:103B280003F002033984BB61174B7B60BB697B6878
:103B380053F8040F7B6001F075FF7B680546186831
:103B480001F078FF16F8013B786207F12401284656
:103B5800C7F830807B63C7E90A9403F00BFF56452A
:103B6800E5D100225C20114602F088FE5C2002F0BC
:103B7800C3FE3C37DD46BD46BDE8F08F005000521D
:103B8800004402580A0A09091C9E0024114B0268C5
:103B98009A4200D07047104A70B5D2F8D4300F4C12
:103BA80023F4804304F11806C2F8D43054F8040F03
:103BB80001F038FF0546206801F03CFF0146284621
:103BC80004F018F8B442F1D15C20BDE8704002F06E
:103BD800A1BE00BF00500052004402581C9E0024A1
:103BE800014806F025B800BFD09D0024084B1A1DD7
:103BF800981D03F1080110B49C1C9A6603F10A028F
:103C0800C3E91834C3E91B015DF8044B5A677047D0
:103C1800C09D002438B5036871B9026A00F128050F
:103C280000F5AC74012A0CBF002140218BBB1D4B51
:103C38005722C0F858310DE0426A00F1C00500F57E
:103C4800E874012A0CBF00214021EBB1164B5A221F
:103C5800C0F8D03100232046C4E901214FF4805236
:103C68004FF48061636262614FF48042C4E90331BA
:103C78004FF48073C4E906234FF40033236202F043
:103C8800AFFF58B1FFBEFEE7084B5822C0F8D0314D
:103C9800E0E7074B5922C0F85831DBE7C5E9204473
:103CA800A56338BD100002407000024028000240A1
:103CB800580002402DE9F043821D05468BB0031DD4
:103CC80005F10A010830CDE9052305F10C02AB69BD
:103CD800CDE907010992002B3DD0EB69B3FA83F8CF
:103CE8004FEA58180123022205AE0AAF4FF0060921
:103CF8000393CDE9012356F8044B2B79227893429C
:103D080016D02B68F3B1012B02D1F2B10A23049328
:103D1800204601F08FFE03462046009301F082FE04
:103D2800694603F027FEBE42E5D10BB0BDE8F0833B
:103D3800697963789942E4D1B8F1000FF3D02B6820
:103D4800002BE0D1CDF81090E2E76378022B14BF86
:103D58000A230823DBE74FF00108C3E7534A036847
:103D6800934230B505468BB055D02032934252D09D
:103D78004F4A934204D02032934201D00BB030BD59
:103D88004C4C4D48D4F8E03043F00103C4F8E0301F
:103D9800D4F8E03003F001030593059BD4F8E03034
:103DA80043F00803C4F8E030D4F8E03003F0080327
:103DB8000693069BD4F8E03043F04003C4F8E030A3
:103DC800D4F8E03003F040030793079BD4F8F030B1
:103DD80043F40003C4F8F030D4F8F03003F40003DF
:103DE8000893089BFFF766FFD4F8D830296843F09A
:103DF80001032F4A3048C4F8D830891AD4F8D8308B
:103E080018BF012103F001030993099B0BB0BDE81A
:103E18003040FFF7FFBE274C2848D4F8E03043F085
:103E28000103C4F8E030D4F8E03003F00103009354
:103E3800009BD4F8E03043F01003C4F8E030D4F825
:103E4800E03003F010030193019BD4F8E03043F015
:103E58004003C4F8E030D4F8E03003F040030293A4
:103E6800029BD4F8F03043F48003C4F8F030D4F85F
:103E7800F03003F480030393039BFFF71BFFD4F890
:103E8800D830296843F00103084A0C48C4F8D830F0
:103E9800891AD4F8D83018BF012103F0010304931C
:103EA800049B0BB0BDE83040FFF7B4BE0458014096
:103EB800045C01400044025894A00024389E002469
:103EC800014803F005BA00BF909F0024014803F0A1
:103ED800FFB900BF08A00024014803F0F9B900BFEA
:103EE800ECA10024014803F0F3B900BF64A2002448
:103EF8001A4A0368934210B40BD02032934208D078
:103F0800174A934216D02032934213D05DF8044BDF
:103F18007047144B0022D3F85442C3F85822002C9F
:103F2800F4D0D3F84802D3E9931223465DF8044B42
:103F3800520818470B4B0022D3F8B044C3F8B424F6
:103F4800002CE3D0D3F8AC24D3F8A814D3F8A404F5
:103F5800520823465DF8044B184700BF0458014037
:103F6800045C0140389E0024184A0368934210B448
:103F78000BD02032934208D0154A934217D02032F2
:103F8800934214D05DF8044B7047124BD3E9942444
:103F98005208C3F85822002CF4D0D3E992012346E2
:103FA80001EB820100EB82005DF8044B1847094BD6
:103FB800D3F8AC24D3F8B0445208C3F8B424002C86
:103FC800E0D0D3F8A814D3F8A404E8E704580140D3
:103FD800045C0140389E00242DE9F04F0C684FF432
:103FE8001776754F87B004FB06F6012C07EB060A17
:103FF800C0F800A000F3A0800D468E464FF00008E0
:10400800D44669A3D3E9002369A1D1E90001CDE928
:10401800022306ABCAF8508203EB8403CDE90401FE
:1040280053F810BC53F8083CCAE992880193BEE8DB
:104038000F00ACE80F00BEE80F00ACE80F00019BD2
:104048009EE80300CAF828B0CAF8C0308CE803001C
:104058002B69042B0CD8DFE803F0737D87910300EC
:104068004FF41773554A03FB04739A64C3F8E020AE
:10407800AA692B6A002A43D0002B4FF4177308BF94
:10408800022203FB047318BF0322DA6201221A63B7
:10409800EA696B6A002A40D1191E4FF4177318BFDA
:1040A800012103FB0473C3E931126B69022B05D8A4
:1040B800434A12F80380434A52F823904FF4177387
:1040C80006F128004246494603FB0474002338449D
:1040D80063646363E365C4F8DC30C4F8CC30C4F8C7
:1040E800F430C4E90F33C4E91533C4E93533C4E9FE
:1040F8003B33022307F03EFE002849D0FFBEFEE70F
:10410800191E4FF4177318BF012103FB0473C3E989
:104118000B12EA696B6A002ABED0002B4FF41773A2
:1041280008BF022203FB047318BF0322C3F8C4208C
:104138000122C3F8C820B8E7012007B0BDE8F08F16
:104148004FF417734FF4FA5203FB04739A64C3F8DD
:10415800E0208DE74FF417734FF47A5203FB047392
:104168009A64C3F8E02083E74FF417734FF4FA42D8
:1041780003FB04739A64C3F8E02079E74FF41773DC
:104188004BF6803203FB04739A64C3F8E0206FE7B0
:1041980006F1C000022342464946384407F0EAFDCA
:1041A8000028CAD0FFBEFEE704580140045C014065
:1041B80024580140245C0140389E00240077010007
:1041C80080200108842001080068704770B50468E1
:1041D80082B015460E46C4F85032C4E99212069AC7
:1041E800C4F85422A269012A26D0626A012A9AB226
:1041F80011D0294604F1C000019207F077FE236A26
:10420800019A012B10D0294604F1280007F06EFE10
:10421800002002B070BD04F1C000019207F0F8FE62
:10422800236A019A012BEED1314604F1280007F0E8
:10423800EFFE002002B070BD226A012A9AB211D0A6
:10424800294604F12800019207F050FE636A019A9A
:10425800012B10D0294604F1C00007F047FE0020CA
:1042680002B070BD04F12800019207F0D1FE636A24
:10427800019A012BEED1314604F1C00007F0C8FEC7
:10428800002002B070BD00BF03681B69042B05D86D
:10429800044A02EB830393ED000A70479FED020A7C
:1042A800704700BF9020010800803B470368D3F89F
:1042B800580270471F4BC1680268F0B5D3F88C509C
:1042C80083B00369ADB24D1BA2B1AB4212D0044614
:1042D800866811D2F018E91ACDE9001000F0AAFF9B
:1042E8000023DDE90010D4E90062B047E3682561E6
:1042F800AB421BD003B0F0BDF018C91ACDE90001DC
:1043080000F098FF0023DDE90001D4E90072B84706
:104318003046294600F08EFF002330466268294661
:104328002668B047E3682561AB42E3D100232361E7
:1043380003B0F0BD000002402DE9F84F04460F46D7
:1043480090461E4600F13405284608F0EDF920286D
:10435800FAD14FF480630020C4F8D030C4F8483153
:104368004FF44033C4F8CC00C4F8E030C4F85831F6
:104378004E4BC4F8DC00C4F8C03003F57A73C4F8B7
:10438800E400C4F838314023C4F8C800C4F8403108
:10439800E369C4F84401C4F85401C4F85C01C4E9F1
:1043A8003500C4E95300072B0BD8DFE803F061534D
:1043B8005A373E454C045123C4F8C4305223C4F83C
:1043C8003C3104F59C79484602F00AFC08B1FFBE6E
:1043D800FEE7C4F8A890C4F87051EFF3108972B6DC
:1043E800DFF8D0B094F91C30DFF8CCA08BF800309F
:1043F8000A9B2F4CCAF800300B9B23600EB118465D
:10440800B0471FFA88F23946284607F077FFB0BB55
:10441800B9F1000F00D162B6BDE8F88F3F23C4F8A8
:10442800C4304023C4F83C31CBE74123C4F8C4303E
:104438004223C4F83C31C4E74723C4F8C4304823B6
:10444800C4F83C31BDE74F23C4F8C4305023C4F846
:104458003C31B6E72B23C4F8C4302C23C4F83C31D4
:10446800AFE72D23C4F8C4302E23C4F83C31A8E7A5
:104478002923C4F8C4302A23C4F83C31A1E7FF2318
:104488008BF800300023CAF8003023600A9B3BB148
:104498000B98012198470120B9F1000FBCD1BAE768
:1044A8000120B9F1000FB7D1B5E700BF880002407D
:1044B80028B2002424B2002420B200242DE9F84FA9
:1044C80004460F4690461E4600F13405284608F07B
:1044D8002BF92028FAD14FF480630020C4F8D0309B
:1044E800C4F848314FF44033C4F8CC00C4F8E03085
:1044F800C4F858314E4BC4F8DC00C4F8C03003F59A
:104508007A73C4F8E400C4F838314023C4F8C8000A
:10451800C4F84031E369C4F84401C4F85401C4F84C
:104528005C01C4E93500C4E95300072B0BD8DFE868
:1045380003F061535A373E454C045123C4F8C43044
:104548005223C4F83C3104F1C009484602F048FB44
:1045580008B1FFBEFEE7C4F8AC90C4F8F850EFF31A
:10456800108972B6DFF8D0B094F91C30DFF8CCA00F
:104578008BF800300A9B2F4CCAF800300B9B236045
:104588000EB11846B0471FFA88F23946284607F098
:1045980007FFB0BBB9F1000F00D162B6BDE8F88FD4
:1045A8003F23C4F8C4304023C4F83C31CBE741234F
:1045B800C4F8C4304223C4F83C31C4E74723C4F8E4
:1045C800C4304823C4F83C31BDE74F23C4F8C43095
:1045D8005023C4F83C31B6E72B23C4F8C4302C234D
:1045E800C4F83C31AFE72D23C4F8C4302E23C4F8F7
:1045F8003C31A8E72923C4F8C4302A23C4F83C3145
:10460800A1E7FF238BF800300023CAF800302360AD
:104618000A9B3BB10B98012198470120B9F1000F83
:10462800BCD1BAE70120B9F1000FB7D1B5E700BF97
:104638008800024028B2002424B2002420B20024BA
:104648002DE9F0410D4682B0EFF3108772B60029CC
:1046580048D1FF23254A264C237013682BB100202C
:1046680029461060234A1068984723781B0625D5E9
:10467800DFF888800025204E444605E001351C34CB
:1046880006F5D876092D19D0A369012B1BD0002B6C
:10469800F4D1216830460029F0D063690193236979
:1046A8000093E3682289FFF709FF0028E6D1C5EBEC
:1046B800C50508EB850348F82500586007B962B6B8
:1046C80002B0BDE8F08161680029D7D0636930463F
:1046D800019323690093E3682289FFF72DFE0028E0
:1046E800CCD1E4E709F01CFBB3E700BF20B20024FB
:1046F80024B2002428B20024F0A200244C00002494
:10470800F0B5002387B0022204460493CDE90223C2
:10471800027EC3690B2A4FEA430523D1A27E0B2AE6
:1047280002D1002007B0F0BD48496B1C484851F839
:104738002330457801781878E67E884269D082422D
:1047480077D0D87803F1030C81426ED0824278D0BA
:10475800987903F1060C88426FD0824233D0012049
:1047680007B0F0BD394B3A4853F825300178467800
:10477800187894F819C081423DD0824241D0D87847
:1047880003F1030E814240D082424AD0987903F166
:10479800060E884241D08242E1D1DB796345DED101
:1047A800734604F118069B783046059301F03AF9F0
:1047B800034630461E4601F03DF901A901903046F6
:1047C80003F0D8F8AAE7DB79B342C8D163461A34B4
:1047D8009B782046059301F025F9034620461C46A0
:1047E80001F028F9034601A92046019303F0C2F815
:1047F800002007B0F0BD93F801E0B645BFD0824273
:10480800BDD158786045BAD1CBE71F79B742BBD143
:10481800BCE75F78AF4292D193E7D979B142BAD178
:104828009DE718796045B1D1BAE71F79AF428DD1BC
:104838008EE75878B04284D1C9E7D979A9428CD19A
:104848008DE71879B04283D1C0E700BF6401002426
:10485800600100247E4A03689342F0B58FB000F0EF
:10486800E380A2F54C42934200F0E08002F58062BA
:10487800934200F0DD8002F58062934200F0DA8016
:1048880002F58062934200F0D98002F544429342D7
:1048980000F0D280A2F51C42934200F0D18002F5CC
:1048A8008062934200F0CE806A4A934240F0CC8006
:1048B8000826694D4FF4D87404FB0654A07E01F015
:1048C800C1F8207E01F0BEF8E369082B13D8DFE8B1
:1048D80003F03B49576573818F9D05005F4BD3F803
:1048E800F42042F00802C3F8F420D3F8F43003F0BF
:1048F80008030893089B2046FFF702FF012801D10F
:10490800FFBEFEE74FF4D8740EAA554F0DF1240CE4
:1049180004FB0654E36902EB43050FCFACE80F0034
:104928003B680022ACF80030114635F9140C01F050
:10493800A5FFE3690EAA02EB430333F9140C0FB089
:10494800BDE8F04001F0D8BF444BD3F8F02042F066
:104958001002C3F8F020D3F8F03003F010030093EE
:10496800009BC8E73D4BD3F8E82042F40032C3F877
:10497800E820D3F8E83003F400330193019BBAE749
:10498800364BD3F8E82042F48022C3F8E820D3F865
:10499800E83003F480230293029BACE72F4BD3F853
:1049A800E82042F40022C3F8E820D3F8E83003F402
:1049B80000230393039B9EE7284BD3F8E82042F497
:1049C8008012C3F8E820D3F8E83003F48013049386
:1049D800049B90E7214BD3F8F02042F02002C3F863
:1049E800F020D3F8F03003F020030593059B82E70D
:1049F8001A4BD3F8E82042F08042C3F8E820D3F8F5
:104A0800E83003F080430693069B74E7134BD3F812
:104A1800E82042F00042C3F8E820D3F8E83003F079
:104A280000430793079B66E7002642E7012640E715
:104A380002263EE703263CE705263AE7042638E740
:104A4800062636E7072634E700239B7EFFDE00BFF5
:104A580000100140000C0058F0A200240044025845
:104A6800D01F01082DE9F04F91B0002301223A49E7
:104A78000DF1240A09938B4601F11C09CAF8143078
:104A88005446CDF800A001F13808CDF804A001F192
:104A98005407CDF808A001F17006CDF80CA001F17B
:104AA8008C05CDF814A001F1C40E01F1E00CCAE99F
:104AB8000133CAE903330F92FF22284B1A7001F120
:104AC800A803CDE906AA0493BAE80F00ABE80F00E3
:104AD8009AE807008BE807000FCC009CA9E80F00B4
:104AE8009AE8070089E807000FCC019CA8E80F00A6
:104AF8009AE8070088E807000FCC029C0FC79AE8DD
:104B0800070087E807000FCC039C0FC69AE8070048
:104B180086E807000FCC0FC59AE80700059C85E8D2
:104B280007000FCC049C0FC49AE8070084E807002C
:104B3800069C0FCCAEE80F009AE80700079C8EE8A9
:104B480007000FCCACE80F009AE807008CE80700D4
:104B580011B0BDE8F08F00BF4C00002424B200243F
:104B680010B5094C04F1340007F0ECFC237D1BB1AF
:104B7800636BDB69DB0600D410BD2046FFF79AFBA8
:104B8800636B10221A6210BDF0A2002410B50B4C02
:104B980004F5F27007F0D6FC94F8C43123B1D4F8C8
:104BA800E431DB69DB0600D410BD04F5D870FFF7EB
:104BB80081FBD4F8E43110221A6210BDF0A200245F
:104BC80010B50B4C04F5657007F0BCFC94F8743311
:104BD80023B1D4F89433DB69DB0600D410BD04F5A7
:104BE8005870FFF767FBD4F8943310221A6210BD8F
:104BF800F0A2002410B50B4C04F2445007F0A2FCBC
:104C080094F8243523B1D4F84435DB69DB0600D4A5
:104C180010BD04F5A260FFF74DFBD4F8443510220F
:104C28001A6210BDF0A2002410B50B4C04F2F46017
:104C380007F088FC94F8D43623B1D4F8F436DB694D
:104C4800DB0600D410BD04F5D860FFF733FBD4F8B9
:104C5800F43610221A6210BDF0A2002410B50B4CD5
:104C680004F6A40007F06EFC94F8843823B1D4F855
:104C7800A438DB69DB0600D410BD04F50760FFF734
:104C880019FBD4F8A43810221A6210BDF0A200242F
:104C980010B50B4C04F6542007F054FC94F8343A41
:104CA80023B1D4F8543ADB69DB0600D410BD04F50F
:104CB8002260FFF7FFFAD4F8543A10221A6210BDA6
:104CC800F0A2002410B50B4C04F6044007F03AFC9F
:104CD80094F8E43B23B1D4F8043CDB69DB0600D448
:104CE80010BD04F53D60FFF7E5FAD4F8043C102246
:104CF8001A6210BDF0A2002410B50B4C04F6B45093
:104D080007F020FC94F8943D23B1D4F8B43DDB6956
:104D1800DB0600D410BD04F55860FFF7CBFAD4F8D1
:104D2800B43D10221A6210BDF0A2002410B5EFF3B2
:104D3800108472B6084B1A78120602D504B962B606
:104D480010BD1B784FF4D87204485BB202FB030015
:104D5800C03002F0BDFAF1E724B20024F0A200242A
:104D680010B5EFF3108472B6094B1A78120602D503
:104D780004B962B610BD1B784FF4D87205485BB20F
:104D880002FB030000F59C7002F0A2FAF0E700BFF6
:104D980024B20024F0A200240021FFF751BC00BF78
:104DA800214A036893422BD0A2F54C42934229D062
:104DB80002F58062934227D002F58062934225D0A3
:104DC80002F58062934223D002F54442934221D0F7
:104DD800A2F51C4293421FD002F5806293421DD077
:104DE800124A93421CD108224FF4D871104B01FB90
:104DF8000233197D11B11846FFF75CBAFFF720BCE2
:104E08000022F1E70122EFE70222EDE70322EBE7B8
:104E18000422E9E70522E7E70622E5E70722E3E7B8
:104E280000231B7DFFDE00BF00100140000C00586E
:104E3800F0A20024204A0368934229D0A2F54C42EC
:104E4800934227D002F58062934225D002F5806212
:104E5800934223D002F58062934221D002F5444266
:104E680093421FD0A2F51C4293421DD002F58062E6
:104E780093421BD0114A93421AD1082310484FF489
:104E8800D87202FB0300037D03B97047FFF712BA1B
:104E98000023F3E70123F1E70223EFE70323EDE71C
:104EA8000423EBE70523E9E70623E7E70723E5E71C
:104EB80000231B7DFFDE00BF00100140000C0058DE
:104EC800F0A200240121FFF7BBBB00BF2DE9F04190
:104ED8004F684FF4D876DFF8C0808E4607FB06F699
:104EE8000C46082F08EB0605056005F1180CBEE80E
:104EF8000F00ACE80F009EE807008CE8070002D816
:104F08006B6A022B02D90120BDE8F0812A6A032AC4
:104F1800F9D8A96A0229F6D8E86A0228F3D8013133
:104F2800DFF878C0343689005CF8277046446F6330
:104F3800A469A9641549AC6351F823306B64144B18
:104F480053F82230134A2B64002352F82010012210
:104F58003046EB65E963C5E91333C5E9153208F056
:104F6800DFFE0028CFD10146304608F031FF002887
:104F7800C9D10146304608F07DFF0028C3D130462C
:104F880008F008FF0028BED12875BDE7C820010831
:104F9800D4200108E4200108F0A20024A42001087C
:104FA800534B0122002047F6122130B4C3E9742084
:104FB800C3E97721C3E9E020C3E9E3211A62DA6291
:104FC80058621963C3F83025C3F83405C3F83C2583
:104FD800C3F84015C3F8E026C3F8E406C3F8EC2686
:104FE800C3F8F016C3F89028C3F89408C3F89C28AF
:104FF800C3F8A018C3F8402AC3F8440AC3F84C2AD7
:10500800C3F8501AC3F8F02BC3F8F40BC3F8FC2B01
:10501800C3F8001CC3F8A40D3648C3F8A02DC3F884
:10502800AC2DC3F8B01D0288837833490068334C2F
:10503800CA804FEA104C0B723149E2802372A1F802
:105048000320A4F8032063714B712E4CCA800B72A5
:105058002D492E4DE2802372A1F80320A4F80320E5
:1050680063714B712A4CCA800B722A49EA80088006
:105078002B7281F802C0E2802372A1F803204B71E1
:10508800CA800B722449A1F803204B71CA800B72A5
:105098002249A1F803204B71CA800B72204908806D
:1050A80081F802C0A1F803204B71CA800B721D4918
:1050B800088081F802C0A1F803204B71CA800B72E6
:1050C8001949088081F802C01848A1F803204B71DB
:1050D800CA800B721649A0F803204371C28003727C
:1050E800A1F803204B71CA800B7230BC704700BF17
:1050F800F0A2002460010024E80100240C0200242E
:10510800000200242402002418020024F4010024D0
:10511800D001002450B2002430020024DC01002415
:105128002CB2002444B2002438B2002454010024D4
:10513800480100243E4B00220B20114610B5D3F83D
:10514800D84082B044F00104C3F8D840D3F8D8401E
:1051580004F001040094009CD3F8D84044F0020401
:10516800C3F8D840D3F8D83003F002030193019B69
:1051780001F084FB0B2001F0BFFB00220C2011463C
:1051880001F07CFB0C2001F0B7FB00220D2011463A
:1051980001F074FB0D2001F0AFFB00220E20114638
:1051A80001F06CFB0E2001F0A7FB00220F20114636
:1051B80001F064FB0F2001F09FFB00221020114634
:1051C80001F05CFB102001F097FB00223C20114607
:1051D80001F054FB3C2001F08FFB00221120114606
:1051E80001F04CFB112001F087FB0022382011460A
:1051F80001F044FB382001F07FFB002239201146E2
:1052080001F03CFB392001F077FB00223A201146DF
:1052180001F034FB3A2001F06FFB00223B201146DD
:1052280001F02CFB3B2002B0BDE8104001F064BB4C
:105238000044025820F01F002031BFF34F8F00298F
:1052480007DD064A0144C2F85C0220300B1A002B25
:10525800F9DCBFF34F8FBFF36F8F704700ED00E0AD
:10526800704700BF08B500F0EDFCBDE8084001F04C
:10527800CDBB00BF064808B503680BB102F08CFD32
:10528800044803681BB1BDE8084003F07BBC08BDB7
:1052980068B6002460B20024064808B503680BB15C
:1052A80002F07AFD044803681BB1BDE8084003F02A
:1052B80069BC08BD68B6002460B20024064808B579
:1052C80003680BB102F068FD044803681BB1BDE830
:1052D800084003F057BC08BD68B6002460B200243B
:1052E800364BDA6A520062D59A6A9A6A9A6A9B6A57
:1052F800180600D500BE314B9B6A990600D500BE42
:105308002E4B9B6ADA0600D500BE2C4B9B6A1B0706
:1053180000D500BE294B9B6A980700D500BE274BD5
:105328009B6AD90700D500BE244B9B6A1A0400D596
:1053380000BE224B9B6A9B0400D500BE1F4B9B6A94
:10534800D80400D500BE1D4B9B6A190500D500BEC8
:105358001A4B9B6A5A0500D500BE184B9B6A9B05E1
:1053680000D500BE154B9B6AD80500D500BE134B6F
:105378009B6A990100D500BE104B9B6ADA0100D5E3
:1053880000BE0E4B9B6A1B0300D500BE0B4B9B6AED
:10539800580300D500BE094B9B6A990300D500BE8F
:1053A800064B9B6ADA0306D400BE00BEFEE7DB6A42
:1053B8009B07FAD5F8E700BEF6E700BF00ED00E06E
:1053C80000F04CBC00F050BC0A4B9B6803F17843DA
:1053D800B3F5003F0BD3084B986848B1986801288B
:1053E80006D09868022803D09B68032070470120E4
:1053F800704700BF00ED00E0000080382DE9F04163
:10540800CEB004464C2200210AA80CF0C9FD202287
:10541800002102A80CF0C4FDBC2200211EA80CF03B
:10542800BFFD022004F022F82368012B4FF000038F
:1054380054D0534A02250193C820D16A514B21F018
:105448000101D162D26A02F0010201929A6942F422
:1054580040429A619B6903F440430193019B494A86
:1054680093699B04FCD548490224002201268B6AD3
:1054780004274FF0080823F0030323438B62052316
:1054880016900AA818934FF480331096179419941D
:105498001597CDF86880CDE91B222122CDE9134468
:1054A800CDE90A2304F0CCFC00B1FEE73F22032338
:1054B800294602A8CDE9022300220823CDE90423C6
:1054C80040224023CDE9062340234FF48062CDE9F2
:1054D800082304F0E3FF0346B8B1FEE7294A042590
:1054E8000093F0209169264B41F440419161926903
:1054F80002F440420092DA6A42F00102DA62DB6AA0
:1055080003F001030093009BA9E720224FF4805188
:1055180025934FF440152B9280222D931EA830938B
:10552800269135914FF48071249234920C22339451
:10553800439140F2271120921022CDF884802A97B7
:105548001F96CDE92E34CDE93B334FF48033CDE9B6
:1055580022463193002446930623CDE93E452793FE
:105568004FF48063094C2C931E94CDE9281205F062
:10557800F1F900B1FEE703F09FFF4EB0BDE8F081FE
:105588000004005800480258004402580F130F0343
:1055980070B584B0012401F0E7F94FF480764FF03C
:1055A8004052194B68460025ADF800400396CDE9F6
:1055B800012301F0F7F919224FF0404368468DF8AE
:1055C800082001938DF80F40ADF80D608DF801406B
:1055D8008DF80A5001F0E6F902230B2268468DF88F
:1055E8000F508DF801304FF062538DF80820019369
:1055F800ADF80D408DF80A4001F0D4F9042001F00F
:10560800C1F904B070BD00BF0E00010330B50D46EE
:10561800044685B0D1E9000184E8030000F0E2FA0D
:10562800AB79A3B3FFF786FDFDF7A6FE0AF06CFB86
:10563800FFF718FA2B798BBB6B799BB1BFF34F8FB0
:10564800BFF36F8F2A4B0022C3F85022BFF34F8F4E
:10565800BFF36F8F5A6942F400325A61BFF34F8F1C
:10566800BFF36F8F4FF0FF320023002400256946F7
:10567800204802928DF80C30CDE900450AF064FF0D
:105688001C480AF0C9FF09F06FFF05B030BD20467D
:10569800FFF7B4FE2046FFF77BFFC3E7144C002357
:1056A800C4F88430BFF34F8FD4F8801043F6E07EFF
:1056B800C1F34E3CC1F3C9014FEA4C1C0CEA0E0081
:1056C8000B4640EA8372013BC4F860225A1CF8D1A9
:1056D800ACF1200C1CF1200FF0D1BFF34F8F6369A0
:1056E80043F480336361BFF34F8FBFF36F8FA3E73A
:1056F80000ED00E05CB2002405F000B81C4B9B688C
:1057080003F17842B2F5003F25D3B3F5803F20D3AB
:1057180003F16042B2F5003F1FD303F15C42B2F5DA
:10572800002F1CD303F17042B2F5902F19D303F167
:105738004842B2F5803F16D303F18042B2F1806F40
:1057480013D303F1E043B3F5000F2CBF0820072063
:1057580070470120704700207047022070470320DF
:10576800704704207047052070470620704700BF27
:1057780000ED00E003480023034A044903600CF0ED
:105788009FBA00BF5CB200240000002469520008E0
:1057980010B4204C0022204B83B0D4F888101F4846
:1057A80041F47001C4F8881019681D4C41F00101DA
:1057B80019601A61196808401A4918609A61DA6113
:1057C8001A629A62DA621A635A639A63DA631A642B
:1057D8005A64186820F4802018601A66D3F8DC2010
:1057E80042F06042C3F8DC20D3F8DC300193019B1F
:1057F80023681940B1F1005F03D20B4B0122C3F8B3
:105808000821044B4FF000629A6003B05DF8044B26
:10581800704700BF00ED00E0004402587FEDF6EA53
:105828000010005C0000FFFF0080005100F571715E
:10583800D0F8040409F026BAC1EBC10300EB8303D6
:10584800D0F80404D3F8082209F04ABAC1EBC1031E
:1058580000EB8303D0F804049A6C09F07FBA00BF08
:10586800D0F8040409F01EBBC16810B5044619B18C
:10587800022900D0FEE70121D4F8040409F0FCFA5B
:10588800D4F80404BDE8104009F0CEBA10B50446B7
:10589800D0F8040409F0F4FA2268D2F8003E43F084
:1058A8000103C2F8003E236A23B1034A136943F097
:1058B8000603136110BD00BF00ED00E0D0F804043A
:1058C80009F0E8BAD0F8040409F0FCBAD0F80404E6
:1058D80009F0F6BAD0F8040409F0F6BAD0F80404CE
:1058E80009F0F4BA9446D0F898021A4608B5634607
:1058F80003F0ACFC032802D8024B185C08BD022058
:1059080008BD00BF00210108D0F8980208B503F0CF
:105918002BFD032802D8024B185C08BD022008BDE5
:1059280000210108D0F8980208B503F061FD0328AA
:1059380002D8024B185C08BD022008BD00210108EE
:105948000A06D0F8983206D4C1EBC10103EB8101F5
:1059580091F8FE01704701F07F01C1EBC10103EB33
:10596800810191F83E007047D0F8980208B503F01D
:1059780057FC032802D8024B185C08BD022008BD5A
:1059880000210108D0F8980208B503F0C5FC0328E7
:1059980002D8024B185C08BD022008BD002101088E
:1059A800D0F8980208B503F08FFC032802D8024B00
:1059B800185C08BD022008BD00210108D0F8C0020B
:1059C80009F032BDD0F8C00209F046BDD0F8C002D7
:1059D80009F04EBD704700BFD0F8C00209F034BDD1
:1059E800D0F8C00209F034BDD0F8D00308B502F0F1
:1059F80093FD032802D8024B185C08BD022008BD9D
:105A080004210108064B01EB410103EB8101D1F8A8
:105A180000C04A688B68C0F800C042608360704765
:105A280008210108024B027853F82200704700BF92
:105A380088210108024B427833F81200704700BFF2
:105A4800682101088CB00A2814D8DFE800F0152373
:105A5800313F4D5B6977859306004D4BD3F8E020C5
:105A680042F48062C3F8E020D3F8E03003F48063A6
:105A78000B930B9B0CB07047454BD3F8E02042F0DA
:105A88000102C3F8E020D3F8E03003F001030193EA
:105A9800019BEFE73E4BD3F8E02042F00202C3F847
:105AA800E020D3F8E03003F002030293029BE1E721
:105AB800374BD3F8E02042F00402C3F8E020D3F8D3
:105AC800E03003F004030393039BD3E7304BD3F890
